{
  "_format": "hh-sol-artifact-1",
  "contractName": "FundMe",
  "sourceName": "contracts/FundMe.sol",
  "abi": [
    {
      "inputs": [
        {
          "internalType": "address",
          "name": "priceFeedContractAddress",
          "type": "address"
        }
      ],
      "stateMutability": "nonpayable",
      "type": "constructor"
    },
    {
      "inputs": [],
      "name": "FundMe__NotEnoughETH",
      "type": "error"
    },
    {
      "inputs": [],
      "name": "FundMe__NotOwner",
      "type": "error"
    },
    {
      "inputs": [],
      "name": "FundMe__WithdrawFailed",
      "type": "error"
    },
    {
      "stateMutability": "payable",
      "type": "fallback"
    },
    {
      "inputs": [],
      "name": "MINIMUM_USD",
      "outputs": [
        {
          "internalType": "uint256",
          "name": "",
          "type": "uint256"
        }
      ],
      "stateMutability": "view",
      "type": "function"
    },
    {
      "inputs": [],
      "name": "cheaperWithdraw",
      "outputs": [],
      "stateMutability": "nonpayable",
      "type": "function"
    },
    {
      "inputs": [],
      "name": "fund",
      "outputs": [],
      "stateMutability": "payable",
      "type": "function"
    },
    {
      "inputs": [
        {
          "internalType": "address",
          "name": "userAddress",
          "type": "address"
        }
      ],
      "name": "getAmountFunded",
      "outputs": [
        {
          "internalType": "uint256",
          "name": "",
          "type": "uint256"
        }
      ],
      "stateMutability": "view",
      "type": "function"
    },
    {
      "inputs": [
        {
          "internalType": "uint256",
          "name": "index",
          "type": "uint256"
        }
      ],
      "name": "getFunders",
      "outputs": [
        {
          "internalType": "address",
          "name": "",
          "type": "address"
        }
      ],
      "stateMutability": "view",
      "type": "function"
    },
    {
      "inputs": [],
      "name": "getOwner",
      "outputs": [
        {
          "internalType": "address",
          "name": "",
          "type": "address"
        }
      ],
      "stateMutability": "view",
      "type": "function"
    },
    {
      "inputs": [],
      "name": "getPriceFeed",
      "outputs": [
        {
          "internalType": "contract AggregatorV3Interface",
          "name": "",
          "type": "address"
        }
      ],
      "stateMutability": "view",
      "type": "function"
    },
    {
      "inputs": [],
      "name": "withdraw",
      "outputs": [],
      "stateMutability": "nonpayable",
      "type": "function"
    },
    {
      "stateMutability": "payable",
      "type": "receive"
    }
  ],
  "bytecode": "0x60806040523480156200001157600080fd5b506040516200112c3803806200112c83398181016040528101906200003791906200012a565b33600260006101000a81548173ffffffffffffffffffffffffffffffffffffffff021916908373ffffffffffffffffffffffffffffffffffffffff16021790555080600360006101000a81548173ffffffffffffffffffffffffffffffffffffffff021916908373ffffffffffffffffffffffffffffffffffffffff160217905550506200015c565b600080fd5b600073ffffffffffffffffffffffffffffffffffffffff82169050919050565b6000620000f282620000c5565b9050919050565b6200010481620000e5565b81146200011057600080fd5b50565b6000815190506200012481620000f9565b92915050565b600060208284031215620001435762000142620000c0565b5b6000620001538482850162000113565b91505092915050565b610fc0806200016c6000396000f3fe60806040526004361061007f5760003560e01c80639e87a5cd1161004e5780639e87a5cd14610142578063a48b45551461016d578063b60d4288146101aa578063be2693f0146101b45761008e565b80633a7b6c74146100985780633ccfd60b146100d55780636b69a592146100ec578063893d20e8146101175761008e565b3661008e5761008c6101cb565b005b6100966101cb565b005b3480156100a457600080fd5b506100bf60048036038101906100ba9190610a93565b6102fb565b6040516100cc9190610b01565b60405180910390f35b3480156100e157600080fd5b506100ea610343565b005b3480156100f857600080fd5b5061010161057c565b60405161010e9190610b2b565b60405180910390f35b34801561012357600080fd5b5061012c610589565b6040516101399190610b01565b60405180910390f35b34801561014e57600080fd5b506101576105b3565b6040516101649190610ba5565b60405180910390f35b34801561017957600080fd5b50610194600480360381019061018f9190610bec565b6105dd565b6040516101a19190610b2b565b60405180910390f35b6101b26101cb565b005b3480156101c057600080fd5b506101c9610625565b005b6802b5e3af16b188000061020a600360009054906101000a900473ffffffffffffffffffffffffffffffffffffffff16346108e490919063ffffffff16565b11610241576040517fb514e4ed00000000000000000000000000000000000000000000000000000000815260040160405180910390fd5b346000803373ffffffffffffffffffffffffffffffffffffffff1673ffffffffffffffffffffffffffffffffffffffff168152602001908152602001600020600082825461028f9190610c48565b925050819055506001339080600181540180825580915050600190039060005260206000200160009091909190916101000a81548173ffffffffffffffffffffffffffffffffffffffff021916908373ffffffffffffffffffffffffffffffffffffffff160217905550565b60006001828154811061031157610310610c7c565b5b9060005260206000200160009054906101000a900473ffffffffffffffffffffffffffffffffffffffff169050919050565b600260009054906101000a900473ffffffffffffffffffffffffffffffffffffffff1673ffffffffffffffffffffffffffffffffffffffff163373ffffffffffffffffffffffffffffffffffffffff16146103ca576040517f579610db00000000000000000000000000000000000000000000000000000000815260040160405180910390fd5b60005b600180549050811015610475576000600182815481106103f0576103ef610c7c565b5b9060005260206000200160009054906101000a900473ffffffffffffffffffffffffffffffffffffffff16905060008060008373ffffffffffffffffffffffffffffffffffffffff1673ffffffffffffffffffffffffffffffffffffffff1681526020019081526020016000208190555050808061046d90610cab565b9150506103cd565b50600067ffffffffffffffff81111561049157610490610cf3565b5b6040519080825280602002602001820160405280156104bf5781602001602082028036833780820191505090505b50600190805190602001906104d59291906109b1565b5060003373ffffffffffffffffffffffffffffffffffffffff16476040516104fc90610d53565b60006040518083038185875af1925050503d8060008114610539576040519150601f19603f3d011682016040523d82523d6000602084013e61053e565b606091505b5050905080610579576040517ff02e6d3000000000000000000000000000000000000000000000000000000000815260040160405180910390fd5b50565b6802b5e3af16b188000081565b6000600260009054906101000a900473ffffffffffffffffffffffffffffffffffffffff16905090565b6000600360009054906101000a900473ffffffffffffffffffffffffffffffffffffffff16905090565b60008060008373ffffffffffffffffffffffffffffffffffffffff1673ffffffffffffffffffffffffffffffffffffffff168152602001908152602001600020549050919050565b600260009054906101000a900473ffffffffffffffffffffffffffffffffffffffff1673ffffffffffffffffffffffffffffffffffffffff163373ffffffffffffffffffffffffffffffffffffffff16146106ac576040517f579610db00000000000000000000000000000000000000000000000000000000815260040160405180910390fd5b6000600180548060200260200160405190810160405280929190818152602001828054801561073057602002820191906000526020600020905b8160009054906101000a900473ffffffffffffffffffffffffffffffffffffffff1673ffffffffffffffffffffffffffffffffffffffff16815260200190600101908083116106e6575b5050505050905060005b81518110156107ba57600082828151811061075857610757610c7c565b5b6020026020010151905060008060008373ffffffffffffffffffffffffffffffffffffffff1673ffffffffffffffffffffffffffffffffffffffff168152602001908152602001600020819055505080806107b290610cab565b91505061073a565b50600067ffffffffffffffff8111156107d6576107d5610cf3565b5b6040519080825280602002602001820160405280156108045781602001602082028036833780820191505090505b506001908051906020019061081a9291906109b1565b506000600260009054906101000a900473ffffffffffffffffffffffffffffffffffffffff1673ffffffffffffffffffffffffffffffffffffffff164760405161086390610d53565b60006040518083038185875af1925050503d80600081146108a0576040519150601f19603f3d011682016040523d82523d6000602084013e6108a5565b606091505b50509050806108e0576040517ff02e6d3000000000000000000000000000000000000000000000000000000000815260040160405180910390fd5b5050565b6000806108f083610920565b90506000670de0b6b3a764000085836109099190610d68565b6109139190610dd9565b9050809250505092915050565b6000808273ffffffffffffffffffffffffffffffffffffffff1663feaf968c6040518163ffffffff1660e01b815260040160a060405180830381865afa15801561096e573d6000803e3d6000fd5b505050506040513d601f19601f820116820180604052508101906109929190610e97565b5050509150506402540be400816109a99190610f12565b915050919050565b828054828255906000526020600020908101928215610a2a579160200282015b82811115610a295782518260006101000a81548173ffffffffffffffffffffffffffffffffffffffff021916908373ffffffffffffffffffffffffffffffffffffffff160217905550916020019190600101906109d1565b5b509050610a379190610a3b565b5090565b5b80821115610a54576000816000905550600101610a3c565b5090565b600080fd5b6000819050919050565b610a7081610a5d565b8114610a7b57600080fd5b50565b600081359050610a8d81610a67565b92915050565b600060208284031215610aa957610aa8610a58565b5b6000610ab784828501610a7e565b91505092915050565b600073ffffffffffffffffffffffffffffffffffffffff82169050919050565b6000610aeb82610ac0565b9050919050565b610afb81610ae0565b82525050565b6000602082019050610b166000830184610af2565b92915050565b610b2581610a5d565b82525050565b6000602082019050610b406000830184610b1c565b92915050565b6000819050919050565b6000610b6b610b66610b6184610ac0565b610b46565b610ac0565b9050919050565b6000610b7d82610b50565b9050919050565b6000610b8f82610b72565b9050919050565b610b9f81610b84565b82525050565b6000602082019050610bba6000830184610b96565b92915050565b610bc981610ae0565b8114610bd457600080fd5b50565b600081359050610be681610bc0565b92915050565b600060208284031215610c0257610c01610a58565b5b6000610c1084828501610bd7565b91505092915050565b7f4e487b7100000000000000000000000000000000000000000000000000000000600052601160045260246000fd5b6000610c5382610a5d565b9150610c5e83610a5d565b9250828201905080821115610c7657610c75610c19565b5b92915050565b7f4e487b7100000000000000000000000000000000000000000000000000000000600052603260045260246000fd5b6000610cb682610a5d565b91507fffffffffffffffffffffffffffffffffffffffffffffffffffffffffffffffff8203610ce857610ce7610c19565b5b600182019050919050565b7f4e487b7100000000000000000000000000000000000000000000000000000000600052604160045260246000fd5b600081905092915050565b50565b6000610d3d600083610d22565b9150610d4882610d2d565b600082019050919050565b6000610d5e82610d30565b9150819050919050565b6000610d7382610a5d565b9150610d7e83610a5d565b9250828202610d8c81610a5d565b91508282048414831517610da357610da2610c19565b5b5092915050565b7f4e487b7100000000000000000000000000000000000000000000000000000000600052601260045260246000fd5b6000610de482610a5d565b9150610def83610a5d565b925082610dff57610dfe610daa565b5b828204905092915050565b600069ffffffffffffffffffff82169050919050565b610e2981610e0a565b8114610e3457600080fd5b50565b600081519050610e4681610e20565b92915050565b6000819050919050565b610e5f81610e4c565b8114610e6a57600080fd5b50565b600081519050610e7c81610e56565b92915050565b600081519050610e9181610a67565b92915050565b600080600080600060a08688031215610eb357610eb2610a58565b5b6000610ec188828901610e37565b9550506020610ed288828901610e6d565b9450506040610ee388828901610e82565b9350506060610ef488828901610e82565b9250506080610f0588828901610e37565b9150509295509295909350565b6000610f1d82610e4c565b9150610f2883610e4c565b9250828202610f3681610e4c565b91507f80000000000000000000000000000000000000000000000000000000000000008414600084121615610f6e57610f6d610c19565b5b8282058414831517610f8357610f82610c19565b5b509291505056fea2646970667358221220b9055ec3686cd14cc4ec2f070476b07adb1401e8ab09be8ec8a292203c1b9d4464736f6c63430008110033",
  "linkReferences": {},
  "deployedLinkReferences": {}
}