{
  "_format": "hh-sol-artifact-1",
  "contractName": "SimpleStorage",
  "sourceName": "contracts/SimpleStorage.sol",
  "abi": [
    {
      "inputs": [
        {
          "internalType": "uint256",
          "name": "_id",
          "type": "uint256"
        },
        {
          "internalType": "string",
          "name": "_name",
          "type": "string"
        }
      ],
      "name": "addZombie",
      "outputs": [],
      "stateMutability": "nonpayable",
      "type": "function"
    },
    {
      "inputs": [],
      "name": "totalZombies",
      "outputs": [
        {
          "internalType": "uint256",
          "name": "",
          "type": "uint256"
        }
      ],
      "stateMutability": "view",
      "type": "function"
    },
    {
      "inputs": [
        {
          "internalType": "uint256",
          "name": "",
          "type": "uint256"
        }
      ],
      "name": "zombie_list",
      "outputs": [
        {
          "internalType": "uint256",
          "name": "id",
          "type": "uint256"
        },
        {
          "internalType": "string",
          "name": "name",
          "type": "string"
        }
      ],
      "stateMutability": "view",
      "type": "function"
    }
  ],
  "bytecode": "0x608060405234801561001057600080fd5b506107e5806100206000396000f3fe608060405234801561001057600080fd5b50600436106100415760003560e01c80633dc4fb211461004657806361edd91d14610062578063a57ea37814610093575b600080fd5b610060600480360381019061005b919061036f565b6100b1565b005b61007c600480360381019061007791906103cb565b610117565b60405161008a929190610486565b60405180910390f35b61009b6101d3565b6040516100a891906104b6565b60405180910390f35b6000604051806040016040528084815260200183815250908060018154018082558091505060019003906000526020600020906002020160009091909190915060008201518160000155602082015181600101908161011091906106dd565b5050505050565b6000818154811061012757600080fd5b906000526020600020906002020160009150905080600001549080600101805461015090610500565b80601f016020809104026020016040519081016040528092919081815260200182805461017c90610500565b80156101c95780601f1061019e576101008083540402835291602001916101c9565b820191906000526020600020905b8154815290600101906020018083116101ac57829003601f168201915b5050505050905082565b60008080549050905090565b6000604051905090565b600080fd5b600080fd5b6000819050919050565b610206816101f3565b811461021157600080fd5b50565b600081359050610223816101fd565b92915050565b600080fd5b600080fd5b6000601f19601f8301169050919050565b7f4e487b7100000000000000000000000000000000000000000000000000000000600052604160045260246000fd5b61027c82610233565b810181811067ffffffffffffffff8211171561029b5761029a610244565b5b80604052505050565b60006102ae6101df565b90506102ba8282610273565b919050565b600067ffffffffffffffff8211156102da576102d9610244565b5b6102e382610233565b9050602081019050919050565b82818337600083830152505050565b600061031261030d846102bf565b6102a4565b90508281526020810184848401111561032e5761032d61022e565b5b6103398482856102f0565b509392505050565b600082601f83011261035657610355610229565b5b81356103668482602086016102ff565b91505092915050565b60008060408385031215610386576103856101e9565b5b600061039485828601610214565b925050602083013567ffffffffffffffff8111156103b5576103b46101ee565b5b6103c185828601610341565b9150509250929050565b6000602082840312156103e1576103e06101e9565b5b60006103ef84828501610214565b91505092915050565b610401816101f3565b82525050565b600081519050919050565b600082825260208201905092915050565b60005b83811015610441578082015181840152602081019050610426565b60008484015250505050565b600061045882610407565b6104628185610412565b9350610472818560208601610423565b61047b81610233565b840191505092915050565b600060408201905061049b60008301856103f8565b81810360208301526104ad818461044d565b90509392505050565b60006020820190506104cb60008301846103f8565b92915050565b7f4e487b7100000000000000000000000000000000000000000000000000000000600052602260045260246000fd5b6000600282049050600182168061051857607f821691505b60208210810361052b5761052a6104d1565b5b50919050565b60008190508160005260206000209050919050565b60006020601f8301049050919050565b600082821b905092915050565b6000600883026105937fffffffffffffffffffffffffffffffffffffffffffffffffffffffffffffffff82610556565b61059d8683610556565b95508019841693508086168417925050509392505050565b6000819050919050565b60006105da6105d56105d0846101f3565b6105b5565b6101f3565b9050919050565b6000819050919050565b6105f4836105bf565b610608610600826105e1565b848454610563565b825550505050565b600090565b61061d610610565b6106288184846105eb565b505050565b5b8181101561064c57610641600082610615565b60018101905061062e565b5050565b601f8211156106915761066281610531565b61066b84610546565b8101602085101561067a578190505b61068e61068685610546565b83018261062d565b50505b505050565b600082821c905092915050565b60006106b460001984600802610696565b1980831691505092915050565b60006106cd83836106a3565b9150826002028217905092915050565b6106e682610407565b67ffffffffffffffff8111156106ff576106fe610244565b5b6107098254610500565b610714828285610650565b600060209050601f8311600181146107475760008415610735578287015190505b61073f85826106c1565b8655506107a7565b601f19841661075586610531565b60005b8281101561077d57848901518255600182019150602085019450602081019050610758565b8683101561079a5784890151610796601f8916826106a3565b8355505b6001600288020188555050505b50505050505056fea2646970667358221220735995aef87455ae78beff33de3486d66675efa1abb9fc1ec315dfa15bf72c1264736f6c63430008110033",
  "linkReferences": {},
  "deployedLinkReferences": {}
}