{
  "_format": "hh-sol-artifact-1",
  "contractName": "SimpleStorage",
  "sourceName": "contracts/SimpleStorage.sol",
  "abi": [
    {
      "inputs": [
        {
          "internalType": "uint256",
          "name": "_id",
          "type": "uint256"
        },
        {
          "internalType": "string",
          "name": "_name",
          "type": "string"
        }
      ],
      "name": "addZombie",
      "outputs": [],
      "stateMutability": "nonpayable",
      "type": "function"
    },
    {
      "inputs": [],
      "name": "totalZombies",
      "outputs": [
        {
          "internalType": "uint256",
          "name": "",
          "type": "uint256"
        }
      ],
      "stateMutability": "view",
      "type": "function"
    },
    {
      "inputs": [
        {
          "internalType": "uint256",
          "name": "",
          "type": "uint256"
        }
      ],
      "name": "zombie_list",
      "outputs": [
        {
          "internalType": "uint256",
          "name": "id",
          "type": "uint256"
        },
        {
          "internalType": "string",
          "name": "name",
          "type": "string"
        }
      ],
      "stateMutability": "view",
      "type": "function"
    }
  ],
  "bytecode": "0x608060405234801561001057600080fd5b50610861806100206000396000f3fe608060405234801561001057600080fd5b50600436106100415760003560e01c80633dc4fb211461004657806361edd91d14610062578063a57ea37814610093575b600080fd5b610060600480360381019061005b91906103eb565b6100b1565b005b61007c60048036038101906100779190610447565b610153565b60405161008a929190610502565b60405180910390f35b61009b61020f565b6040516100a89190610532565b60405180910390f35b6100c5672d53a3e4c9a22deb60c01b610258565b6100d967ef2d979e1f492e3260c01b610258565b6100ed67cade89876e283ed760c01b610258565b6000604051806040016040528084815260200183815250908060018154018082558091505060019003906000526020600020906002020160009091909190915060008201518160000155602082015181600101908161014c9190610759565b5050505050565b6000818154811061016357600080fd5b906000526020600020906002020160009150905080600001549080600101805461018c9061057c565b80601f01602080910402602001604051908101604052809291908181526020018280546101b89061057c565b80156102055780601f106101da57610100808354040283529160200191610205565b820191906000526020600020905b8154815290600101906020018083116101e857829003601f168201915b5050505050905082565b600061022567e9c8eab5d20f199c60c01b610258565b6102396778674435b474f08b60c01b610258565b61024d670564c24417966c1d60c01b610258565b600080549050905090565b50565b6000604051905090565b600080fd5b600080fd5b6000819050919050565b6102828161026f565b811461028d57600080fd5b50565b60008135905061029f81610279565b92915050565b600080fd5b600080fd5b6000601f19601f8301169050919050565b7f4e487b7100000000000000000000000000000000000000000000000000000000600052604160045260246000fd5b6102f8826102af565b810181811067ffffffffffffffff82111715610317576103166102c0565b5b80604052505050565b600061032a61025b565b905061033682826102ef565b919050565b600067ffffffffffffffff821115610356576103556102c0565b5b61035f826102af565b9050602081019050919050565b82818337600083830152505050565b600061038e6103898461033b565b610320565b9050828152602081018484840111156103aa576103a96102aa565b5b6103b584828561036c565b509392505050565b600082601f8301126103d2576103d16102a5565b5b81356103e284826020860161037b565b91505092915050565b6000806040838503121561040257610401610265565b5b600061041085828601610290565b925050602083013567ffffffffffffffff8111156104315761043061026a565b5b61043d858286016103bd565b9150509250929050565b60006020828403121561045d5761045c610265565b5b600061046b84828501610290565b91505092915050565b61047d8161026f565b82525050565b600081519050919050565b600082825260208201905092915050565b60005b838110156104bd5780820151818401526020810190506104a2565b60008484015250505050565b60006104d482610483565b6104de818561048e565b93506104ee81856020860161049f565b6104f7816102af565b840191505092915050565b60006040820190506105176000830185610474565b818103602083015261052981846104c9565b90509392505050565b60006020820190506105476000830184610474565b92915050565b7f4e487b7100000000000000000000000000000000000000000000000000000000600052602260045260246000fd5b6000600282049050600182168061059457607f821691505b6020821081036105a7576105a661054d565b5b50919050565b60008190508160005260206000209050919050565b60006020601f8301049050919050565b600082821b905092915050565b60006008830261060f7fffffffffffffffffffffffffffffffffffffffffffffffffffffffffffffffff826105d2565b61061986836105d2565b95508019841693508086168417925050509392505050565b6000819050919050565b600061065661065161064c8461026f565b610631565b61026f565b9050919050565b6000819050919050565b6106708361063b565b61068461067c8261065d565b8484546105df565b825550505050565b600090565b61069961068c565b6106a4818484610667565b505050565b5b818110156106c8576106bd600082610691565b6001810190506106aa565b5050565b601f82111561070d576106de816105ad565b6106e7846105c2565b810160208510156106f6578190505b61070a610702856105c2565b8301826106a9565b50505b505050565b600082821c905092915050565b600061073060001984600802610712565b1980831691505092915050565b6000610749838361071f565b9150826002028217905092915050565b61076282610483565b67ffffffffffffffff81111561077b5761077a6102c0565b5b610785825461057c565b6107908282856106cc565b600060209050601f8311600181146107c357600084156107b1578287015190505b6107bb858261073d565b865550610823565b601f1984166107d1866105ad565b60005b828110156107f9578489015182556001820191506020850194506020810190506107d4565b868310156108165784890151610812601f89168261071f565b8355505b6001600288020188555050505b50505050505056fea264697066735822122017178078d94e8a146f89cc9a3f8ae8867adbecd532b28244dcb8a3f21b782bac64736f6c63430008110033",
  "linkReferences": {},
  "deployedLinkReferences": {}
}